:020000040000FA
:100000000010001001030000C1000000C10000004A
:1000100000000000000000000000000000000000E0
:10002000000000000000000000000000C10000000F
:100030000000000000000000C1000000C10000003E
:10004000C1000000C1000000C1000000C1000000AC
:10005000C1000000C1000000C1000000C10000009C
:10006000C1000000C1000000C1000000C10000008C
:10007000C1000000C1000000C1000000C500000078
:10008000C1000000C1000000C10000001D0200000E
:10009000C1000000C1000000C1000000C10000005C
:1000A000C1000000C1000000C1000000C10000004C
:1000B000C1000000C1000000C1000000CD0100002F
:1000C000FEE70000F0B4012189074C683E4A002396
:1000D0001069282C20D006DC082C12D0102C10D04F
:1000E000182C07D118E00425402C3BD0502C43D0CD
:1000F000582C50D01020086013705069401C50617B
:100100005DE08370C37042784468531C4370A05C08
:1001100088602020886152E08478002C09D04278E1
:100120004468531C4370A25C8A608278521E8270BD
:1001300045E0457846686C1CE4B24470755D002D5E
:1001400007D0102D16D104786406640E0470137065
:1001500010E0621C335DD2B28370531C4370B05CFC
:1001600088602CE042784468531C4370A25C827023
:10017000002A24D00D6022E0CE6AC4788768631C10
:10018000C3703E5512699078401E0006000E9070B4
:1001900015D18D6113E0CE6AC57887686C1CC47078
:1001A0007E551069457846686C1C4470745D102C4F
:1001B00004D105786D066D0E057013700C60082073
:1001C0008861F0BC70470000000000100E48816993
:1001D000C1610E484069332180B24902401A0C497E
:1001E000CA43884201DD084602E0904200DA104628
:1001F0000849CA68D243D20602D580B288607047E7
:1002000005490020086070470080005000C0014090
:10021000FF7F000000000440000801500F490868FB
:1002200008600F4840690D2280B2520280180D4AC2
:1002300001D5002002E0904200DD1046821180329C
:10024000CA610A624A6208498A89904200DA888152
:10025000CA89904200DDC8817047000000800140DB
:1002600000C00140FFFF000000000010000000007F
:10027000000000000000000000000000000000007E
:10028000000000000000000000000000000000006E
:10029000000000000000000000000000000000005E
:1002A000000000000000000000000000000000004E
:1002B000000000000000000000000000000000003E
:1002C000000000000000000000000000000000002E
:1002D000000000000000000000000000000000001E
:1002E000000000000000000000000000000000000E
:1002F000000000000000000000000000FFFFFFFF02
:10030000F84A81B023209060F74B986B8021884396
:100310009863D068C007FCD0F44D03242C630120FF
:100320006863002169636863A863F24EF04D35602D
:10033000F14D286168612E4671616861A861ED4DDB
:100340006861032555609D6B1027BD439D63EB4D90
:10035000F0232B61E94EF125F561F362E84B33633D
:100360007363E84BC1251D62D2269E6242269E63BE
:10037000E54BC3261E601E61C2265E61D1265E6209
:100380009D621323DD4D9B01AB633D25DF4B2D01AA
:100390001D60AF25DE4EAD0035603525DD4E2D01EB
:1003A0003560A725DC4EAD003563126B520702D5D0
:1003B000DA480160FEE7DB4AD94D55601460DB4C3A
:1003C000D94AE26001206060DA4AD9481060DA4A0E
:1003D0000004D060400810610820D860CB4A10614A
:1003E000D64AD148906103205061D54A0E2050630F
:1003F0000520D24AC001D0611062506201205060D5
:100400002D20820710614B20506140251560CD4A98
:100410008F201060CB4806224260CB48C160CA4B97
:10042000CA481860CB4BCA48D880680218815881E6
:10043000D01F98810020D881431EC64878260370BB
:100440004370C54806700026467082708022C270D4
:100450004271C271457286720722C2720775C04A24
:1004600030461678BD4D002E05D0165C2E54401C2B
:10047000165C002EF9D12954B64802228370C1704F
:1004800041710271B74A81251570B74D5560D26030
:1004900002614161B54A0092B54AA249AA238B6024
:1004A00055238B60A168C388591A09B200291EDC44
:1004B000A168A74B0725C918C18081890181C3891B
:1004C000AD024381A94203D9ED2109028B4203D336
:1004D000924B0021196003E00121904B4902196001
:1004E0000021C94381810021C181012141709D4BBF
:1004F0001978002905D0012978D197495960002140
:10050000197003214156002971DB02254557002D42
:1005100005DB8D4203DA0021C943C170ABE104263B
:100520008657B446B60703D58C4E4F10F65D01E0F2
:100530008A4E765C002E01D1002DECDB6546002D45
:1005400006D0012D1FD0022D52D0032D4DD180E0B9
:10055000884DF6007519CE07370F7F4E37710F079C
:100560007F0F49061037490FB031B77131726D1ED8
:10057000009904266F784F70AD1C891C2F780F707E
:10058000761EF7D196E0CD072F0F734D2F710F0711
:100590007F0F10374906AF71490FB0312972310909
:1005A000754F89007F5C2F73734FCF19797869730A
:1005B000B978A973F978E9733107890E6E4E8C46C4
:1005C0008E19403636782E74412631436A4E67467E
:1005D000765C6E7442263743674E6146F65DAE74B4
:1005E00043263143644E715CE97463E0E2E067E006
:1005F000CD074F09ED0FAC467F012D017F19C906CC
:10060000090F79184FB265465C49ED026918F5008B
:100610004919002F0CDBFD072E0F4F4D2E713E07A1
:10062000760F1036AE717E06760FB0362E7204E06D
:10063000494EE3253571B5713572491E009D04267A
:100640004F786F70891CAD1C0F782F70761EF7D114
:1006500030E04D09CF076D01FF0EED19CF063F0FBA
:10066000ED196DB2C90703D03107090F103100E051
:100670003111434EC9008919002D0BDBEE07370FEE
:10068000354E37712F077F0F10376D066D0FB7711D
:10069000B03503E0304EE3253571B5713572491E32
:1006A000009D04264F786F70891CAD1C0F782F7049
:1006B000761EF7D1C178491CC17080211970DAE02B
:1006C0004178002976D00589290B0A2901D23031D9
:1006D00000E03731214B99752905090F0A2951D2BC
:1006E000303150E0008004400082044040800440EB
:1006F000FFAF010080800440C080044000400440FF
:10070000010200004040044080400440008000504E
:1007100000800150400F0050C00A015000080150F5
:100720007F4F120000400040FF04000000C0004066
:1007300000800F8000E100E000E400E00080014064
:10074000408001400000044000C001400259010007
:10075000C4090000000000109900001018000010EB
:1007600040220000B0000010B4080000A4000010F7
:10077000380000103E0A0000BE0800003E120000D3
:100780003E0900003731D9752906090F0A2901D21F
:10079000303100E0373119762907090F0A2901D2D3
:1007A000303100E0373159764389190B0A2902D2DA
:1007B000303101E05FE0373191711905090F0A29E5
:1007C00001D2303100E03731D1711906090F0A2901
:1007D00001D2303100E0373111721907090F0A29AF
:1007E00001D2303100E03731517241690B0F0A2BD1
:1007F00001D2303300E0373313760B011B0F0A2B85
:1008000001D2303300E0373353760B021B0F0A2B33
:1008100001D2303300E0373393760B031B0F0A2BE2
:1008200001D2303300E03733D3760B041B0F0A2B91
:1008300001D2303300E0373313770B051B0F0A2B3F
:1008400001D2303300E0373353770B061B0F0A2BEE
:1008500001D2303300E037330907090F93770A29B3
:1008600001D2303100E03731D1777F2181701621FC
:10087000C1700021417000214156002909DAA368A6
:10088000FF217831C91A09B2002900DD05E60021EF
:10089000017001780029F9D10169C96801610B78FB
:1008A0001B06F3D50123037000234B702023590648
:1008B0000B60F2E578000500D5F08D14AF101F1124
:1008C0001F0000001F001D15170015151F0007044D
:1008D0001F0017151D001F151D0001011F001F150A
:1008E0001F0017151F001F051F001F141C001F11DC
:1008F00011001C141F001F1515001F0505007C4466
:100900007C0000007C0074545C0054547C001C107B
:100910007C005C5474007C54740004047C007C549F
:100920007C005C547C007C147C007C5070007C4417
:10093000440070507C007C5454007C1414003E41F0
:1009400049413E00000000427F400000000042613B
:100950005149460000002241494936000000181460
:10096000127F1000000027454545390000003E4930
:1009700049493200000001710905030000003649B1
:10098000494936000000264949493E0000007C12D2
:1009900011127C0000007F494949360000003E41A9
:1009A0004141220000007F4141221C0000007F499C
:1009B0004949410000007F090909010000000000C9
:1009C000003E4149413E00000000427F40000000DF
:1009D0000042615149460000002241494936000069
:1009E000001814127F10000000274545453900000B
:1009F000003E494949320000000171090503000029
:100A0000003649494936000000264949493E000060
:100A1000007C1211127C0000007F49494936000019
:100A2000003E414141220000007F4141221C000064
:100A3000007F494949410000007F09090901000080
:100A40000000000000007E8195B1B195817E7EFF9F
:100A5000EBCFCFEBFF7E0E1F3F7E3F1F0E00081C2B
:100A60003E7F3E1C0800383A9FFF9F3A3800183CF2
:100A7000BEFFBE3C18000000183C3C180000FFFF01
:100A8000E7C3C3E7FFFF003C664242663C00FFC38A
:100A900099BDBD99C3FF70F88888FD7F070F004E90
:100AA0005FF1F15F4E00C0E0FF7F05050707C0FF63
:100AB0007F0505657F3F5A5A3CE7E73C5A5A7F3E1F
:100AC0003E1C1C08080008081C1C3E3E7F00002439
:100AD00066FFFF662400005F5F00005F5F00060F97
:100AE000097F7F017F7F409ABFA5A5FD5902007055
:100AF0007070707070008094B6FFFFB69480000430
:100B0000067F7F0604000010307F7F301000080849
:100B1000082A3E1C0800081C3E2A080808003C3C25
:100B2000202020202000081C3E08083E1C083038E9
:100B30003C3E3E3C3830060E1E3E3E1E0E06000079
:100B40000000000000000000065F5F0600000003D8
:100B5000070000070300147F7F147F7F1400002428
:100B60002E6B6B3A1200466630180C666200307AC3
:100B70004F5D377A480000000407030000000000C2
:100B80001C3E63410000000041633E1C0000082A37
:100B90003E1C1C3E2A080008083E3E0808000000D3
:100BA00080E0600000000008080808080800000055
:100BB0000060600000006030180C060301001C3E5D
:100BC0006349633E1C000040427F7F404000426317
:100BD0007159496F660022634949497F3600181CE4
:100BE00016537F7F50002F6F4949497931003C7E71
:100BF0004B4949783000030371790D070300367FB4
:100C00004949497F3600064F4949693F1E000000A7
:100C1000006666000000000080E66600000000003C
:100C2000081C3663410000242424242424000041AD
:100C300063361C080000020301595D0702003E7F75
:100C4000415D5D1F1E007C7E0B090B7E7C00417F99
:100C50007F49497F36001C3E634141632200417F4A
:100C60007F41633E1C00417F7F495D416300417FBE
:100C70007F491D0103001C3E6341513372007F7F99
:100C80000808087F7F000000417F7F41000030702E
:100C900040417F3F0100417F7F081C776300417F17
:100CA0007F41406070007F7F0E1C0E7F7F007F7F42
:100CB000060C187F7F003E7F4141417F3E00417F0F
:100CC0007F49090F06003E7F4141E1FFBE00417FA1
:100CD0007F09197F66000022674D597322000007C3
:100CE000437F7F4307003F7F4040407F3F001F3FDF
:100CF0006040603F1F003F7F6038607F3F00637748
:100D00001C081C77630000074F78784F0700476383
:100D100071594D67730000007F7F4141000001035E
:100D2000060C18306000000041417F7F0000080C75
:100D30000603060C08008080808080808080000090
:100D4000010306040000207454543C784000417FA5
:100D50003F44447C3800387C4444446C2800387C50
:100D600044453F7F4000387C5454545C1800487E12
:100D70007F490903020098BCA4A4F87C0400417FC9
:100D80007F08047C78000000447D7D400000006006
:100D9000E08080FD7D00417F7F10386C44000000C2
:100DA000417F7F4000007C7C0C780C7C7800047CC8
:100DB0007804047C7800387C4444447C380084FC0B
:100DC000F8A4243C1800183C24A4F8FC8400447CBB
:100DD000784C040C0800485C5454547424000404F7
:100DE0003F7F446420003C7C40403C7C40001C3CF5
:100DF0006040603C1C003C7C6038607C3C00446C83
:100E00003810386C44009CBCA0A0A0FC7C00004CB6
:100E100064745C4C64000008083E774141000000A7
:100E2000007F7F000000004141773E080800020378
:100E300001030203010070784C464C7870001EBF1D
:100E4000A1A1E17312003D7D40403D7D4000387C12
:100E50005456575D1800227555553D79420021754D
:100E600054543C794100207455573E78400020741A
:100E700057573C784000183CA4A4E46424003A7D11
:100E80005555555D1A00397D5454545D1900387C10
:100E90005557565C18000001457C7C410100020159
:100EA000457D7D4102000000497B7A400000797D4C
:100EB0001612167D7900787E1715177E78007C7CD7
:100EC0005657554444002074547C7C5454007C7E16
:100ED0000B097F7F49003A7D4545457D3A00397DC4
:100EE0004444447D3900387C4547467C38003A7993
:100EF0004141397A40003C7D43423C7C40009DBDED
:100F0000A0A0A0FD7D00193D6642663D19003D7D13
:100F10004040407D3D00183C24E7E7242400487E03
:100F20007F4943662000002B2FFCFC2F2B00FFFF86
:100F300009092FF6F8A02060487E3F0903022074BB
:100F400056573D7840000000487A7B410000387CCD
:100F50004446477D38003C7C42433D7C40000A7B50
:100F6000710B0A7B71007A7B1933627B7900002652
:100F70002F292F2F280000262F292F2600000020A0
:100F8000705D4D40602038380808080808000808DF
:100F9000080808383800426F3F18CCEEBB91426F0A
:100FA0003F586CD6FB410000307D7D300000081CAE
:100FB0003622081C362222361C0822361C08AA00BB
:100FC0005500AA005500AA55AA55AA55AA55AAFF28
:100FD00055FFAAFF55FF000000FFFF0000001010A2
:100FE00010FFFF000000141414FFFF000000101099
:100FF000FFFF00FFFF001010F0F010F0F0001414DD
:1010000014FCFC0000001414F7F700FFFF000000C0
:10101000FFFF00FFFF001414F4F404FCFC001414A0
:101020001717101F1F0010101F1F101F1F00141470
:10103000141F1F000000101010F0F000000000004E
:10104000001F1F1010101010101F1F101010101074
:1010500010F0F0101010000000FFFF101010101022
:10106000101010101010101010FFFF1010100000C2
:1010700000FFFF1414140000FFFF00FFFF1000002A
:101080001F1F101717140000FCFC04F4F4141414B0
:101090001717101717141414F4F404F4F4140000C0
:1010A000FFFF00F7F7141414141414141414141478
:1010B000F7F700F7F714141414171714141410107A
:1010C0001F1F101F1F10141414F4F4141414101004
:1010D000F0F010F0F01000001F1F101F1F10000094
:1010E000001F1F141414000000FCFC141414000052
:1010F000F0F010F0F0101010FFFF10FFFF101414AC
:1011000014FFFF1414141010101F1F000000000023
:1011100000F0F0101010FFFFFFFFFFFFFFFFF0F0E7
:10112000F0F0F0F0F0F0FFFFFFFF00000000000023
:101130000000FFFFFFFF0F0F0F0F0F0F0F0F387C87
:10114000446C386C44007E7F01095F7620007F7F0D
:10115000010101030300047C7C047C7C04006377B0
:101160005D4941636300387C447C3C04040080FC9E
:101170007C40407C3C000406027E7C060200009914
:10118000BDE7E7BD99001C3E6B496B3E1C004C7EE1
:101190007301737E4C000030784A4F7D3900183C53
:1011A000243C3C243C1898FC643C3E273D18001C21
:1011B0003E6B494949007C7E0202027E7C002A2A5D
:1011C0002A2A2A2A2A000044445F5F44440000403F
:1011D000515B4E4440000040444E5B5140000000D3
:1011E00000FEFF01070660E080FF7F0000000008AE
:1011F000082A2A080800243612362436120000066F
:101200000F090F0600000000001818000000000081
:10121000000808000000103070C0FFFF010100014D
:101220001F1E011F1E000011191D171200000000D3
:101230003C3C3C3C000000000000000000000000BE
:10124000000000000000F8049484849404F8F8FC82
:101250006C7C7C6CFCF8E0F0F0E0F0F0E00080C02A
:10126000E0F0E0C08000C0C0F03838F0C0C0C0E09E
:10127000F0F8F8F0E0C0000080C0C0800000FFFF80
:101280007F3F3F7FFFFF00C060202060C000FF3F26
:101290009FDFDF9F3FFF80C06074DC8C3C000078E4
:1012A000FC8484FC78000000FCFC14141C1C00FC72
:1012B000FC141414FCFCA0A0C07878C0A0A0FEFC14
:1012C000F8F0E04040004040E0F0F8FCFE00001084
:1012D00018FCFC18100000FCFC0000FCFC00387C32
:1012E00044FCFC04FCFCC4EE3A1232E6C4000000EC
:1012F000000000000000001018FCFC181000001096
:1013000018FCFC181000000000FCFC0000008080AD
:1013100080A0E0C0800080C0E0A080808000C0C0CD
:1013200000000000000080C0E08080E0C0800080FD
:10133000E0F0E080000030F0F0F0F0F0300000006D
:10134000000000000000000038FCFC380000000E27
:101350001E00001E0E0020F8F820F8F82000387C4F
:10136000444747CC980030300080C060300080D8BF
:101370007CE4BCD8400000101E0E000000000000FD
:10138000F0F80C0400000000040CF8F0000080A04D
:10139000E0C0C0E0A080008080E0E080800000002D
:1013A00000000000000080808080808080000000BD
:1013B00000000000000000000080C0603000F0F875
:1013C0000CC4C40CF8F0001018FCFC000000080C61
:1013D00084C4643C1800080C444444FCB800C0E0D9
:1013E000B098FCFC80007C7C444444C48400F0F849
:1013F0004C4444C080000C0C0484C47C3C00B8FC09
:10140000444444FCB800387C444444FCF8000000E8
:10141000003030000000000000303000000000808C
:10142000C060301808000020202020202000000884
:10143000183060C08000181C04C4E43C1800F0F8A8
:1014400008C8C8F8F000E0F0988C98F0E00004FCC0
:10145000FC4444FCB800F0F80C04040C180004FC34
:10146000FC040CF8F00004FCFC44E40C1C0004FC3C
:10147000FC44E40C1C00F0F80C84848C9800FCFC08
:10148000404040FCFC00000004FCFC0400000000A4
:101490000004FCFC040004FCFCC0E03C1C0004FC58
:1014A000FC0400000000FCFC38707038FCFCFCFC04
:1014B0003870E0FCFC00F8FC040404FCF80004FCB8
:1014C000FC44447C3800F8FC040404FCF80004FCF0
:1014D000FC44C4FC3800183C6444C49C18001C0C38
:1014E00004FCFC040C1CFCFC000000FCFC00FCFCEC
:1014F00000000000FCFCFCFC00808000FCFC0C1CDC
:1015000030E0E0301C0C1C3C60C0C0603C1C1C0C7B
:1015100084C464341C0C0000FCFC0404000038701B
:10152000E0C08000000000000404FCFC0000080C87
:101530000603060C08000000000000000000000088
:1015400003070400000000A0A0A0E0C0000004FC0D
:10155000FC2060C08000C0E020202060400080C0EF
:101560006024FCFC0000C0E0A0A0A0E0C00040F8A7
:10157000FC440C180000C0E02020C0E0200004FC67
:10158000FC4020E0C000000020ECEC000000000067
:10159000000020ECEC0004FCFC80C0602000000097
:1015A00004FCFC000000E0E060C0C060E0C020E09F
:1015B000C02020E0C000C0E0202020E0C00020E0EB
:1015C000C02020E0C000C0E02020C0E0200020E0DB
:1015D000C06020E0C00040E0A0202060400020204B
:1015E000F8FC20200000E0E00000E0E00000E0E087
:1015F00000000000E0E0E0E000000000E0E020602B
:10160000C08080C06020E0E0000000E0E00060609A
:1016100020A0E0602000004040F8BC04040000006E
:1016200000BCBC000000000404BCF8404000080CF2
:10163000040C080C040080C0603060C08000F0F82A
:101640000C04040C1800E4E40000E4E40000C0E032
:10165000A8ACA6E2C00000A8ACA6ECC8000004A498
:10166000A0A0E4C4000000A2A6ACE8C0000000A452
:10167000AEAAEEC4000000E0F01010302000C0E878
:10168000ACA6ACE8C000C4E4A0A0A0E4C400C0E2E2
:10169000A6ACA8E0C000000424E0E00404000008B8
:1016A0002CE6E60C0800000226ECE8000000C2E28E
:1016B000301830E2C200C0E2371537E2C00010F443
:1016C000F69391B03000002060C0E020E0C0F0F858
:1016D0004C44FCFC4400C0E82C262CE8C000C4E4C8
:1016E000202020E4C400C0E2262C28E0C000E8EC62
:1016F0000606ECE80000E0E2060CE8E00000E4E4A6
:10170000000000E4E400F2FA080808FAF200FAFA2D
:10171000000000FAFA00F0F8080E0E08181020FC7D
:10172000FE22060C0000444C58F0F0584C4402FED7
:10173000FE1292DEEC80004040FCFE42460400A80F
:10174000ACA6E2C00000000028ECE6020000C0E801
:101750002C2622E0C000E0E80C06E2E0000028ECC5
:10176000C42C28ECC400FAFB71E3C2FBF900004C66
:101770005E525E5E5000004C5E525E4C0000008087
:10178000EC6C00000000C0C04040404040004040C1
:10179000404040C0C0003E3E80C0603018003E3E29
:1017A00080C060301800000000ECEC00000080C039
:1017B00060A0C06020002060C0A060C0800000AABF
:1017C000005500AA0055AA55AA55AA55AA5555FF75
:1017D000AAFF55FFAAFF000000FFFF000000808065
:1017E00080FFFF000000A0A0A0FFFF00000080809D
:1017F000FFFF00FFFF008080808080808000A0A02D
:10180000A0E0E0000000A0A0BFBF00FFFF000000BC
:10181000FFFF00FFFF00A0A0A0A020E0E000A0A02C
:10182000BFBF80FFFF008080FFFF80FFFF00A0A000
:10183000A0FFFF000000808080808000000000008A
:1018400000FFFF808080808080FFFF80808080801C
:10185000808080808080000000FFFF80808080800A
:10186000808080808080808080FFFF80808000007A
:1018700000FFFFA0A0A00000FFFF00FFFF8000000E
:10188000FFFF80BFBFA00000E0E020A0A0A0A0A0BC
:10189000BFBF80BFBFA0A0A0A0A020A0A0A00000AC
:1018A000FFFF00BFBFA0A0A0A0A0A0A0A0A0A0A0DC
:1018B000BFBF00BFBFA0A0A0A0BFBFA0A0A080804E
:1018C000FFFF80FFFF80A0A0A0A0A0A0A0A080801C
:1018D0008080808080800000FFFF80FFFF8000000C
:1018E00000FFFFA0A0A0000000E0E0A0A0A000007A
:1018F0008080808080808080FFFF80FFFF80A0A0AC
:10190000A0FFFFA0A0A0808080FFFF0000000000DB
:10191000008080808080FFFFFFFFFFFFFFFF80804F
:10192000808080808080FFFFFFFF000000000000BB
:101930000000FFFFFFFF7F7F7F7F7F7F7F7FC0E013
:1019400020E0C0602000F8FC0444FCB80000FCFC6F
:101950000404041C1C0010F0F010F0F01000183803
:1019600068C888181800C0E020E0E020200000F0DF
:10197000F00000F0F000203010F0E030100000C85F
:10198000E83838E8C800E0F0988898F0E00070F88F
:101990008C048CF870000080C85C74E4C400C0E063
:1019A00020E0E020E0C0C0E020E0E030F8C800F037
:1019B000F84C44440000F0F8080808F8F000909053
:1019C000909090909000004040F0F0404000000067
:1019D0000818B0E040000040E0B018080000000027
:1019E00000F8FC041C18000000FFFF00000000804D
:1019F00080B0B08080004060206040602000000C1B
:101A00001E121E0C0000000000808000000000007C
:101A100000000000000080808000FEFE0202027EC6
:101A20007C027E7C000064765A4E6400000000F068
:101A3000F0F0F0F0000000000000000000000000E6
:101A40000000000000000708080909080807070F40
:101A50000F0E0E0F0F070103070F07030100000110
:101A60000307030100000101090E0E090101000135
:101A7000090F0F0901000000010303010000FFFF2F
:101A8000FEFCFCFEFFFF0003060404060300FFFC4F
:101A9000F9FBFBF9FCFF070F08080F070000000225
:101AA000020F0F0202000C0E0F07000000001C1FA7
:101AB0000F00000E0F070202010F0F0102020F07B5
:101AC0000301000000000000000103070F000001F7
:101AD000030707030100000D0D00000D0D000000BD
:101AE000000F0F000F0F08191312171D08000F0F1A
:101AF0000F0F0F0F0F0000090B0F0F0B0900000055
:101B0000000F0F0000000002060F0F060200000089
:101B100000020301000000010302000000000303B3
:101B20000202020202000001030000030100060796
:101B30000707070706000000030703000000000076
:101B40000000000000000000000D0D00000000007B
:101B5000000000000000020F0F020F0F0200060C31
:101B60000838380F07000C060301000C0C00070FA3
:101B70000808070F08000000000000000000000037
:101B800003070C0800000000080C07030000000217
:101B90000301010302000000000303000000000035
:101BA000101E0E00000000000000000000000000F9
:101BB000000C0C0000000C060301000000000307ED
:101BC0000C08080C07030008080F0F0808000E0F88
:101BD0000908080C0C00040C0808080F0700000096
:101BE00000080F0F0800040C0808080F0700070F73
:101BF0000808080F070000000F0F00000000070F83
:101C00000808080F0700000808080C070300000078
:101C10000006060000000000080E0600000000009C
:101C20000103060C08000001010101010100000888
:101C30000C06030100000000000D0D000000070F5E
:101C4000080B0B0B01000F0F0000000F0F00080F17
:101C50000F08080F070003070C08080C0600080F00
:101C60000F080C070300080F0F08080C0E00080FE0
:101C70000F080000000003070C0808070F000F0FF3
:101C80000000000F0F000000080F0F080000070FF2
:101C900008080F070000080F0F00010F0E00080FC3
:101CA0000F08080C0E000F0F000000000F0F0F0FA1
:101CB0000000000F0F00070F0808080F0700080FAB
:101CC0000F0800000000070F080E3C3F2700080F18
:101CD0000F00000F0F00060E0808080F0700000095
:101CE000080F0F080000070F0808080F070001037E
:101CF000060C0C060301030F0E03030E0F030C0E5C
:101D0000030101030E0C0000080F0F0800000E0F66
:101D1000090808080C0E00000F0F0808000000005A
:101D2000000103070E00000008080F0F000000006C
:101D300000000000000020202020202020200000A3
:101D4000000000000000070F0808070F0800000F40
:101D50000F08080F0700070F0808080C0400070FFA
:101D60000808070F0800070F0808080C0400080FF0
:101D70000F0800000000276F48487F3F0000080F51
:101D80000F00000F0F000000080F0F0800000030C8
:101D90007040407F3F00080F0F01030E0C00000051
:101DA000080F0F0800000F0F000F0F000F0F000F9C
:101DB0000F00000F0F00070F0808080F0700407FF3
:101DC0007F48080F0700070F08487F7F4000080F73
:101DD0000F0800000000040C09090B0E04000000AD
:101DE000070F080C0400070F0808070F080001037D
:101DF000060C0C060301070F0C07070C0F07080C55
:101E0000060303060C08474F4848683F1F000C0EA6
:101E10000B09080C0C00000000070F080800000068
:101E2000000F0F0000000008080F0700000000006E
:101E30000000000000000707040404070700012356
:101E400026242C3E1300070F0808070F0800070F71
:101E50000808080C0400070F0808070F0800070F00
:101E60000808070F0800070F0808070F0800070FEA
:101E70000808070F080000011312161F0900070FBA
:101E80000808080C0400070F0808080C0400070FD6
:101E90000808080C04000000080F0F0800000000EC
:101EA000080F0F0800000000080F0F0800000F0FB8
:101EB0000101010F0F000F0F0101010F0F00080FAB
:101EC0000F08080C0C00060F090F070D09080F0F6B
:101ED00000000F0F0800070F0808080F0700070F82
:101EE0000808080F0700070F0808080F0700070F6A
:101EF0000808070F0800070F0808070F0800074F1A
:101F00004848683F1F00070F0808080F0700070F21
:101F10000808080F07000103020E0E0203010C0F50
:101F20000F08080C04000101010F0F010101080F47
:101F30000F0800070F081030203F1F000000070F98
:101F40000808070F08000000080F0F080000070F1F
:101F50000808080F0700070F0808070F0800000F00
:101F60000F00000F0F000F0F0000010F0F00000007
:101F70000000000000000000000000000000070F4B
:101F80000808080E06000707000000000000000017
:101F900000000007070006030124363A2E2406033A
:101FA000090C0A3F3F000000070F0F070000000167
:101FB000030201030200020301020301000000AA60
:101FC000005500AA0055AA55AA55AA55AA5555FF6D
:101FD000AAFF55FFAAFF000000FFFF00000000005D
:101FE00000FFFF000000000000FFFF0000000000F5
:101FF000FFFF00FFFF000000FFFF00FFFF000000E9
:1020000000FFFF0000000000FFFF00FFFF000000D6
:10201000FFFF00FFFF000000FFFF00FFFF000000C8
:1020200000000000000000000000000000000000B0
:10203000000000000000000000FFFF0000000000A2
:102040000000000000000000000000000000000090
:1020500000FFFF000000000000FFFF000000000084
:10206000000000000000000000FFFF000000000072
:1020700000FFFF0000000000FFFF00FFFF00000066
:102080000000000000000000FFFF00FFFF00000054
:102090000000000000000000FFFF00FFFF00000044
:1020A000FFFF00FFFF000000000000000000000034
:1020B000FFFF00FFFF000000000000000000000024
:1020C000000000000000000000FFFF000000000012
:1020D000FFFF00FFFF000000000000000000000004
:1020E000000000000000000000FFFF0000000000F2
:1020F000FFFF00FFFF000000FFFF00FFFF000000E8
:1021000000FFFF00000000000000000000000000D1
:1021100000FFFF000000FFFFFFFFFFFFFFFFFFFFCB
:10212000FFFFFFFFFFFFFFFFFFFF000000000000B9
:102130000000FFFFFFFF0000000000000000070F8D
:10214000080F070C08000F0F0000080F07000F0F03
:10215000000000000000000F0F000F0F00000C0E29
:102160000B09080C0C00070F080F07000000101FD8
:102170000F02020301000000000F0F000000000921
:102180000B0E0E0B090003070C080C070300080FC9
:102190000F000F0F080000070F08080F07000103CA
:1021A000020303020301090F0703020203010003F4
:1021B000070C080800000F0F0000000F0F000404B8
:1021C00004040404040008080809090808080008B1
:1021D0000A0B09080800000808090B0A080000009B
:1021E00000FFFF000000070F080F070000000000BD
:1021F00000060600000002030103020301000000C4
:1022000000000000000000000001010000000000CC
:102210000001010000000003070C0F0F0000000088
:1022200000000000000000000000000000000007A7
:102230000707070700000000000000000000000082
:102240004D494320746573742020202020202020D5
:102250006D696E3D30783F3F3F3F20202020202099
:102260006D61783D30783F3F3F3F20202020202087
:10227000493243455252433D3F3F3F3F3F3F3F3F3F
:10228000000000000000000000000000000000004E
:0C22900000000000000000000000000042
:0400000500000301F3
:00000001FF
